{
  "contractName": "Voting",
  "abi": [
    {
      "anonymous": false,
      "inputs": [
        {
          "indexed": true,
          "internalType": "address",
          "name": "previousOwner",
          "type": "address"
        },
        {
          "indexed": true,
          "internalType": "address",
          "name": "newOwner",
          "type": "address"
        }
      ],
      "name": "OwnershipTransferred",
      "type": "event"
    },
    {
      "anonymous": false,
      "inputs": [
        {
          "indexed": false,
          "internalType": "uint256",
          "name": "proposalId",
          "type": "uint256"
        }
      ],
      "name": "ProposalRegistered",
      "type": "event"
    },
    {
      "anonymous": false,
      "inputs": [
        {
          "indexed": false,
          "internalType": "address",
          "name": "voter",
          "type": "address"
        },
        {
          "indexed": false,
          "internalType": "uint256",
          "name": "proposalId",
          "type": "uint256"
        }
      ],
      "name": "Voted",
      "type": "event"
    },
    {
      "anonymous": false,
      "inputs": [
        {
          "indexed": false,
          "internalType": "address",
          "name": "voterAddress",
          "type": "address"
        }
      ],
      "name": "VoterRegistered",
      "type": "event"
    },
    {
      "anonymous": false,
      "inputs": [
        {
          "indexed": false,
          "internalType": "enum Voting.WorkflowStatus",
          "name": "previousStatus",
          "type": "uint8"
        },
        {
          "indexed": false,
          "internalType": "enum Voting.WorkflowStatus",
          "name": "newStatus",
          "type": "uint8"
        }
      ],
      "name": "WorkflowStatusChange",
      "type": "event"
    },
    {
      "inputs": [],
      "name": "owner",
      "outputs": [
        {
          "internalType": "address",
          "name": "",
          "type": "address"
        }
      ],
      "stateMutability": "view",
      "type": "function"
    },
    {
      "inputs": [
        {
          "internalType": "uint256",
          "name": "",
          "type": "uint256"
        }
      ],
      "name": "proposalsArray",
      "outputs": [
        {
          "internalType": "string",
          "name": "description",
          "type": "string"
        },
        {
          "internalType": "uint256",
          "name": "voteCount",
          "type": "uint256"
        }
      ],
      "stateMutability": "view",
      "type": "function"
    },
    {
      "inputs": [],
      "name": "renounceOwnership",
      "outputs": [],
      "stateMutability": "nonpayable",
      "type": "function"
    },
    {
      "inputs": [
        {
          "internalType": "address",
          "name": "newOwner",
          "type": "address"
        }
      ],
      "name": "transferOwnership",
      "outputs": [],
      "stateMutability": "nonpayable",
      "type": "function"
    },
    {
      "inputs": [],
      "name": "workflowStatus",
      "outputs": [
        {
          "internalType": "enum Voting.WorkflowStatus",
          "name": "",
          "type": "uint8"
        }
      ],
      "stateMutability": "view",
      "type": "function"
    },
    {
      "inputs": [
        {
          "internalType": "address",
          "name": "_addr",
          "type": "address"
        }
      ],
      "name": "getVoter",
      "outputs": [
        {
          "components": [
            {
              "internalType": "bool",
              "name": "isRegistered",
              "type": "bool"
            },
            {
              "internalType": "bool",
              "name": "hasVoted",
              "type": "bool"
            },
            {
              "internalType": "uint256",
              "name": "votedProposalId",
              "type": "uint256"
            }
          ],
          "internalType": "struct Voting.Voter",
          "name": "",
          "type": "tuple"
        }
      ],
      "stateMutability": "view",
      "type": "function"
    },
    {
      "inputs": [
        {
          "internalType": "uint256",
          "name": "_id",
          "type": "uint256"
        }
      ],
      "name": "getOneProposal",
      "outputs": [
        {
          "components": [
            {
              "internalType": "string",
              "name": "description",
              "type": "string"
            },
            {
              "internalType": "uint256",
              "name": "voteCount",
              "type": "uint256"
            }
          ],
          "internalType": "struct Voting.Proposal",
          "name": "",
          "type": "tuple"
        }
      ],
      "stateMutability": "view",
      "type": "function"
    },
    {
      "inputs": [],
      "name": "getWinners",
      "outputs": [
        {
          "components": [
            {
              "internalType": "string",
              "name": "description",
              "type": "string"
            },
            {
              "internalType": "uint256",
              "name": "voteCount",
              "type": "uint256"
            }
          ],
          "internalType": "struct Voting.Proposal[]",
          "name": "",
          "type": "tuple[]"
        }
      ],
      "stateMutability": "view",
      "type": "function"
    },
    {
      "inputs": [],
      "name": "getWinner",
      "outputs": [
        {
          "components": [
            {
              "internalType": "string",
              "name": "description",
              "type": "string"
            },
            {
              "internalType": "uint256",
              "name": "voteCount",
              "type": "uint256"
            }
          ],
          "internalType": "struct Voting.Proposal",
          "name": "",
          "type": "tuple"
        }
      ],
      "stateMutability": "view",
      "type": "function"
    },
    {
      "inputs": [
        {
          "internalType": "address",
          "name": "_addr",
          "type": "address"
        }
      ],
      "name": "addVoter",
      "outputs": [],
      "stateMutability": "nonpayable",
      "type": "function"
    },
    {
      "inputs": [
        {
          "internalType": "string",
          "name": "_desc",
          "type": "string"
        }
      ],
      "name": "addProposal",
      "outputs": [],
      "stateMutability": "nonpayable",
      "type": "function"
    },
    {
      "inputs": [
        {
          "internalType": "uint256",
          "name": "_id",
          "type": "uint256"
        }
      ],
      "name": "setVote",
      "outputs": [],
      "stateMutability": "nonpayable",
      "type": "function"
    },
    {
      "inputs": [],
      "name": "startProposalsRegistering",
      "outputs": [],
      "stateMutability": "nonpayable",
      "type": "function"
    },
    {
      "inputs": [],
      "name": "endProposalsRegistering",
      "outputs": [],
      "stateMutability": "nonpayable",
      "type": "function"
    },
    {
      "inputs": [],
      "name": "startVotingSession",
      "outputs": [],
      "stateMutability": "nonpayable",
      "type": "function"
    },
    {
      "inputs": [],
      "name": "endVotingSession",
      "outputs": [],
      "stateMutability": "nonpayable",
      "type": "function"
    },
    {
      "inputs": [],
      "name": "tallyVotesDraw",
      "outputs": [],
      "stateMutability": "nonpayable",
      "type": "function"
    },
    {
      "inputs": [],
      "name": "tallyVotes",
      "outputs": [],
      "stateMutability": "nonpayable",
      "type": "function"
    }
  ],
  "bytecode": "0x60806040523480156200001157600080fd5b5062000032620000266200003860201b60201c565b6200004060201b60201c565b62000104565b600033905090565b60008060009054906101000a900473ffffffffffffffffffffffffffffffffffffffff169050816000806101000a81548173ffffffffffffffffffffffffffffffffffffffff021916908373ffffffffffffffffffffffffffffffffffffffff1602179055508173ffffffffffffffffffffffffffffffffffffffff168173ffffffffffffffffffffffffffffffffffffffff167f8be0079c531659141344cd1fd0a4f28419497f9722a3daafe3b4186f6b6457e060405160405180910390a35050565b612ea780620001146000396000f3fe608060405234801561001057600080fd5b50600436106101165760003560e01c8063a7bfab16116100a2578063df15c37e11610071578063df15c37e14610249578063ee74c67814610267578063f2fde38b14610271578063f4ab9adf1461028d578063f86c6779146102a957610116565b8063a7bfab16146101fb578063c7038a4e14610205578063c88af42f1461020f578063d4f50f981461021957610116565b8063715018a6116100e9578063715018a6146101675780638da5cb5b146101715780638e7ea5b21461018f578063a1edffa2146101ad578063a2788cce146101cb57610116565b8063230796ae1461011b5780632fdae3c514610137578063378a2178146101535780633beee92e1461015d575b600080fd5b61013560048036038101906101309190611ec1565b6102da565b005b610151600480360381019061014c9190612034565b6105d7565b005b61015b61081b565b005b6101656109fc565b005b61016f610d60565b005b610179610de8565b60405161018691906120be565b60405180910390f35b610197610e11565b6040516101a491906121ad565b60405180910390f35b6101b5610f5e565b6040516101c29190612246565b60405180910390f35b6101e560048036038101906101e09190611ec1565b610f71565b6040516101f291906121ad565b60405180910390f35b610203611049565b005b61020d6111a2565b005b6102176112fc565b005b610233600480360381019061022e919061228d565b611456565b6040516102409190612317565b60405180910390f35b61025161157e565b60405161025e9190612431565b60405180910390f35b61026f6116ee565b005b61028b6004803603810190610286919061228d565b611848565b005b6102a760048036038101906102a2919061228d565b611940565b005b6102c360048036038101906102be9190611ec1565b611b5e565b6040516102d19291906124ac565b60405180910390f35b600660003373ffffffffffffffffffffffffffffffffffffffff1673ffffffffffffffffffffffffffffffffffffffff16815260200190815260200160002060000160009054906101000a900460ff16610369576040517f08c379a000000000000000000000000000000000000000000000000000000000815260040161036090612528565b60405180910390fd5b6003600581111561037d5761037c6121cf565b5b600460009054906101000a900460ff16600581111561039f5761039e6121cf565b5b146103df576040517f08c379a00000000000000000000000000000000000000000000000000000000081526004016103d6906125ba565b60405180910390fd5b60011515600660003373ffffffffffffffffffffffffffffffffffffffff1673ffffffffffffffffffffffffffffffffffffffff16815260200190815260200160002060000160019054906101000a900460ff1615151415610476576040517f08c379a000000000000000000000000000000000000000000000000000000000815260040161046d90612626565b60405180910390fd5b6005805490508111156104be576040517f08c379a00000000000000000000000000000000000000000000000000000000081526004016104b590612692565b60405180910390fd5b80600660003373ffffffffffffffffffffffffffffffffffffffff1673ffffffffffffffffffffffffffffffffffffffff168152602001908152602001600020600101819055506001600660003373ffffffffffffffffffffffffffffffffffffffff1673ffffffffffffffffffffffffffffffffffffffff16815260200190815260200160002060000160016101000a81548160ff02191690831515021790555060058181548110610574576105736126b2565b5b9060005260206000209060020201600101600081548092919061059690612710565b91905055507f4d99b957a2bc29a30ebd96a7be8e68fe50a3c701db28a91436490b7d53870ca433826040516105cc929190612759565b60405180910390a150565b600660003373ffffffffffffffffffffffffffffffffffffffff1673ffffffffffffffffffffffffffffffffffffffff16815260200190815260200160002060000160009054906101000a900460ff16610666576040517f08c379a000000000000000000000000000000000000000000000000000000000815260040161065d90612528565b60405180910390fd5b6001600581111561067a576106796121cf565b5b600460009054906101000a900460ff16600581111561069c5761069b6121cf565b5b146106dc576040517f08c379a00000000000000000000000000000000000000000000000000000000081526004016106d3906127ce565b60405180910390fd5b6040516020016106eb90612814565b60405160208183030381529060405280519060200120816040516020016107129190612834565b604051602081830303815290604052805190602001201415610769576040517f08c379a0000000000000000000000000000000000000000000000000000000008152600401610760906128c8565b60405180910390fd5b610771611ce6565b818160000181905250600581908060018154018082558091505060019003906000526020600020906002020160009091909190915060008201518160000190805190602001906107c2929190611d00565b506020820151816001015550507f92e393e9b54e2f801d3ea4beb0c5e71a21cc34a5d34b77d0fb8a3aa1650dc18f600160058054905061080291906128e8565b60405161080f919061291c565b60405180910390a15050565b610823611c1a565b73ffffffffffffffffffffffffffffffffffffffff16610841610de8565b73ffffffffffffffffffffffffffffffffffffffff1614610897576040517f08c379a000000000000000000000000000000000000000000000000000000000815260040161088e90612983565b60405180910390fd5b600460058111156108ab576108aa6121cf565b5b600460009054906101000a900460ff1660058111156108cd576108cc6121cf565b5b1461090d576040517f08c379a000000000000000000000000000000000000000000000000000000000815260040161090490612a15565b60405180910390fd5b600080600090505b60058054905081101561098b5760058281548110610936576109356126b2565b5b9060005260206000209060020201600101546005828154811061095c5761095b6126b2565b5b9060005260206000209060020201600101541115610978578091505b808061098390612710565b915050610915565b50806003819055506005600460006101000a81548160ff021916908360058111156109b9576109b86121cf565b5b02179055507f0a97a4ee45751e2abf3e4fc8946939630b11b371ea8ae39ccdc3056e98f5cc3f600460056040516109f1929190612a35565b60405180910390a150565b610a04611c1a565b73ffffffffffffffffffffffffffffffffffffffff16610a22610de8565b73ffffffffffffffffffffffffffffffffffffffff1614610a78576040517f08c379a0000000000000000000000000000000000000000000000000000000008152600401610a6f90612983565b60405180910390fd5b60046005811115610a8c57610a8b6121cf565b5b600460009054906101000a900460ff166005811115610aae57610aad6121cf565b5b14610aee576040517f08c379a0000000000000000000000000000000000000000000000000000000008152600401610ae590612a15565b60405180910390fd5b6000610af8611d86565b600080600090505b600580549050811015610c05576005821015610bf2578360058281548110610b2b57610b2a6126b2565b5b9060005260206000209060020201600101541415610b6f5780838360058110610b5757610b566126b2565b5b6020020181815250508180610b6b90612710565b9250505b8360058281548110610b8457610b836126b2565b5b9060005260206000209060020201600101541115610bf157610ba4611d86565b92508083600060058110610bbb57610bba6126b2565b5b60200201818152505060058181548110610bd857610bd76126b2565b5b9060005260206000209060020201600101549350600191505b5b8080610bfd90612710565b915050610b00565b5060005b81811015610cf4576001838260058110610c2657610c256126b2565b5b6020020151908060018154018082558091505060019003906000526020600020016000909190919091505560026005848360058110610c6857610c676126b2565b5b602002015181548110610c7e57610c7d6126b2565b5b906000526020600020906002020190806001815401808255809150506001900390600052602060002090600202016000909190919091506000820181600001908054610cc990612a8d565b610cd4929190611da8565b506001820154816001015550508080610cec90612710565b915050610c09565b506005600460006101000a81548160ff02191690836005811115610d1b57610d1a6121cf565b5b02179055507f0a97a4ee45751e2abf3e4fc8946939630b11b371ea8ae39ccdc3056e98f5cc3f60046005604051610d53929190612a35565b60405180910390a1505050565b610d68611c1a565b73ffffffffffffffffffffffffffffffffffffffff16610d86610de8565b73ffffffffffffffffffffffffffffffffffffffff1614610ddc576040517f08c379a0000000000000000000000000000000000000000000000000000000008152600401610dd390612983565b60405180910390fd5b610de66000611c22565b565b60008060009054906101000a900473ffffffffffffffffffffffffffffffffffffffff16905090565b610e19611ce6565b600580811115610e2c57610e2b6121cf565b5b600460009054906101000a900460ff166005811115610e4e57610e4d6121cf565b5b14610e8e576040517f08c379a0000000000000000000000000000000000000000000000000000000008152600401610e8590612b0b565b60405180910390fd5b600560035481548110610ea457610ea36126b2565b5b9060005260206000209060020201604051806040016040529081600082018054610ecd90612a8d565b80601f0160208091040260200160405190810160405280929190818152602001828054610ef990612a8d565b8015610f465780601f10610f1b57610100808354040283529160200191610f46565b820191906000526020600020905b815481529060010190602001808311610f2957829003601f168201915b50505050508152602001600182015481525050905090565b600460009054906101000a900460ff1681565b610f79611ce6565b60058281548110610f8d57610f8c6126b2565b5b9060005260206000209060020201604051806040016040529081600082018054610fb690612a8d565b80601f0160208091040260200160405190810160405280929190818152602001828054610fe290612a8d565b801561102f5780601f106110045761010080835404028352916020019161102f565b820191906000526020600020905b81548152906001019060200180831161101257829003601f168201915b505050505081526020016001820154815250509050919050565b611051611c1a565b73ffffffffffffffffffffffffffffffffffffffff1661106f610de8565b73ffffffffffffffffffffffffffffffffffffffff16146110c5576040517f08c379a00000000000000000000000000000000000000000000000000000000081526004016110bc90612983565b60405180910390fd5b600360058111156110d9576110d86121cf565b5b600460009054906101000a900460ff1660058111156110fb576110fa6121cf565b5b1461113b576040517f08c379a0000000000000000000000000000000000000000000000000000000008152600401611132906125ba565b60405180910390fd5b60048060006101000a81548160ff021916908360058111156111605761115f6121cf565b5b02179055507f0a97a4ee45751e2abf3e4fc8946939630b11b371ea8ae39ccdc3056e98f5cc3f60036004604051611198929190612a35565b60405180910390a1565b6111aa611c1a565b73ffffffffffffffffffffffffffffffffffffffff166111c8610de8565b73ffffffffffffffffffffffffffffffffffffffff161461121e576040517f08c379a000000000000000000000000000000000000000000000000000000000815260040161121590612983565b60405180910390fd5b60006005811115611232576112316121cf565b5b600460009054906101000a900460ff166005811115611254576112536121cf565b5b14611294576040517f08c379a000000000000000000000000000000000000000000000000000000000815260040161128b90612b9d565b60405180910390fd5b6001600460006101000a81548160ff021916908360058111156112ba576112b96121cf565b5b02179055507f0a97a4ee45751e2abf3e4fc8946939630b11b371ea8ae39ccdc3056e98f5cc3f600060016040516112f2929190612a35565b60405180910390a1565b611304611c1a565b73ffffffffffffffffffffffffffffffffffffffff16611322610de8565b73ffffffffffffffffffffffffffffffffffffffff1614611378576040517f08c379a000000000000000000000000000000000000000000000000000000000815260040161136f90612983565b60405180910390fd5b6001600581111561138c5761138b6121cf565b5b600460009054906101000a900460ff1660058111156113ae576113ad6121cf565b5b146113ee576040517f08c379a00000000000000000000000000000000000000000000000000000000081526004016113e590612c2f565b60405180910390fd5b6002600460006101000a81548160ff02191690836005811115611414576114136121cf565b5b02179055507f0a97a4ee45751e2abf3e4fc8946939630b11b371ea8ae39ccdc3056e98f5cc3f6001600260405161144c929190612a35565b60405180910390a1565b61145e611e35565b600660003373ffffffffffffffffffffffffffffffffffffffff1673ffffffffffffffffffffffffffffffffffffffff16815260200190815260200160002060000160009054906101000a900460ff166114ed576040517f08c379a00000000000000000000000000000000000000000000000000000000081526004016114e490612528565b60405180910390fd5b600660008373ffffffffffffffffffffffffffffffffffffffff1673ffffffffffffffffffffffffffffffffffffffff1681526020019081526020016000206040518060600160405290816000820160009054906101000a900460ff161515151581526020016000820160019054906101000a900460ff161515151581526020016001820154815250509050919050565b6060600580811115611593576115926121cf565b5b600460009054906101000a900460ff1660058111156115b5576115b46121cf565b5b146115f5576040517f08c379a00000000000000000000000000000000000000000000000000000000081526004016115ec90612b0b565b60405180910390fd5b6002805480602002602001604051908101604052809291908181526020016000905b828210156116e5578382906000526020600020906002020160405180604001604052908160008201805461164a90612a8d565b80601f016020809104026020016040519081016040528092919081815260200182805461167690612a8d565b80156116c35780601f10611698576101008083540402835291602001916116c3565b820191906000526020600020905b8154815290600101906020018083116116a657829003601f168201915b5050505050815260200160018201548152505081526020019060010190611617565b50505050905090565b6116f6611c1a565b73ffffffffffffffffffffffffffffffffffffffff16611714610de8565b73ffffffffffffffffffffffffffffffffffffffff161461176a576040517f08c379a000000000000000000000000000000000000000000000000000000000815260040161176190612983565b60405180910390fd5b6002600581111561177e5761177d6121cf565b5b600460009054906101000a900460ff1660058111156117a05761179f6121cf565b5b146117e0576040517f08c379a00000000000000000000000000000000000000000000000000000000081526004016117d790612cc1565b60405180910390fd5b6003600460006101000a81548160ff02191690836005811115611806576118056121cf565b5b02179055507f0a97a4ee45751e2abf3e4fc8946939630b11b371ea8ae39ccdc3056e98f5cc3f6002600360405161183e929190612a35565b60405180910390a1565b611850611c1a565b73ffffffffffffffffffffffffffffffffffffffff1661186e610de8565b73ffffffffffffffffffffffffffffffffffffffff16146118c4576040517f08c379a00000000000000000000000000000000000000000000000000000000081526004016118bb90612983565b60405180910390fd5b600073ffffffffffffffffffffffffffffffffffffffff168173ffffffffffffffffffffffffffffffffffffffff161415611934576040517f08c379a000000000000000000000000000000000000000000000000000000000815260040161192b90612d53565b60405180910390fd5b61193d81611c22565b50565b611948611c1a565b73ffffffffffffffffffffffffffffffffffffffff16611966610de8565b73ffffffffffffffffffffffffffffffffffffffff16146119bc576040517f08c379a00000000000000000000000000000000000000000000000000000000081526004016119b390612983565b60405180910390fd5b600060058111156119d0576119cf6121cf565b5b600460009054906101000a900460ff1660058111156119f2576119f16121cf565b5b14611a32576040517f08c379a0000000000000000000000000000000000000000000000000000000008152600401611a2990612de5565b60405180910390fd5b60011515600660008373ffffffffffffffffffffffffffffffffffffffff1673ffffffffffffffffffffffffffffffffffffffff16815260200190815260200160002060000160009054906101000a900460ff1615151415611ac9576040517f08c379a0000000000000000000000000000000000000000000000000000000008152600401611ac090612e51565b60405180910390fd5b6001600660008373ffffffffffffffffffffffffffffffffffffffff1673ffffffffffffffffffffffffffffffffffffffff16815260200190815260200160002060000160006101000a81548160ff0219169083151502179055507fb6be2187d059cc2a55fe29e0e503b566e1e0f8c8780096e185429350acffd3dd81604051611b5391906120be565b60405180910390a150565b60058181548110611b6e57600080fd5b9060005260206000209060020201600091509050806000018054611b9190612a8d565b80601f0160208091040260200160405190810160405280929190818152602001828054611bbd90612a8d565b8015611c0a5780601f10611bdf57610100808354040283529160200191611c0a565b820191906000526020600020905b815481529060010190602001808311611bed57829003601f168201915b5050505050908060010154905082565b600033905090565b60008060009054906101000a900473ffffffffffffffffffffffffffffffffffffffff169050816000806101000a81548173ffffffffffffffffffffffffffffffffffffffff021916908373ffffffffffffffffffffffffffffffffffffffff1602179055508173ffffffffffffffffffffffffffffffffffffffff168173ffffffffffffffffffffffffffffffffffffffff167f8be0079c531659141344cd1fd0a4f28419497f9722a3daafe3b4186f6b6457e060405160405180910390a35050565b604051806040016040528060608152602001600081525090565b828054611d0c90612a8d565b90600052602060002090601f016020900481019282611d2e5760008555611d75565b82601f10611d4757805160ff1916838001178555611d75565b82800160010185558215611d75579182015b82811115611d74578251825591602001919060010190611d59565b5b509050611d829190611e5a565b5090565b6040518060a00160405280600590602082028036833780820191505090505090565b828054611db490612a8d565b90600052602060002090601f016020900481019282611dd65760008555611e24565b82601f10611de75780548555611e24565b82800160010185558215611e2457600052602060002091601f016020900482015b82811115611e23578254825591600101919060010190611e08565b5b509050611e319190611e5a565b5090565b6040518060600160405280600015158152602001600015158152602001600081525090565b5b80821115611e73576000816000905550600101611e5b565b5090565b6000604051905090565b600080fd5b600080fd5b6000819050919050565b611e9e81611e8b565b8114611ea957600080fd5b50565b600081359050611ebb81611e95565b92915050565b600060208284031215611ed757611ed6611e81565b5b6000611ee584828501611eac565b91505092915050565b600080fd5b600080fd5b6000601f19601f8301169050919050565b7f4e487b7100000000000000000000000000000000000000000000000000000000600052604160045260246000fd5b611f4182611ef8565b810181811067ffffffffffffffff82111715611f6057611f5f611f09565b5b80604052505050565b6000611f73611e77565b9050611f7f8282611f38565b919050565b600067ffffffffffffffff821115611f9f57611f9e611f09565b5b611fa882611ef8565b9050602081019050919050565b82818337600083830152505050565b6000611fd7611fd284611f84565b611f69565b905082815260208101848484011115611ff357611ff2611ef3565b5b611ffe848285611fb5565b509392505050565b600082601f83011261201b5761201a611eee565b5b813561202b848260208601611fc4565b91505092915050565b60006020828403121561204a57612049611e81565b5b600082013567ffffffffffffffff81111561206857612067611e86565b5b61207484828501612006565b91505092915050565b600073ffffffffffffffffffffffffffffffffffffffff82169050919050565b60006120a88261207d565b9050919050565b6120b88161209d565b82525050565b60006020820190506120d360008301846120af565b92915050565b600081519050919050565b600082825260208201905092915050565b60005b838110156121135780820151818401526020810190506120f8565b83811115612122576000848401525b50505050565b6000612133826120d9565b61213d81856120e4565b935061214d8185602086016120f5565b61215681611ef8565b840191505092915050565b61216a81611e8b565b82525050565b6000604083016000830151848203600086015261218d8282612128565b91505060208301516121a26020860182612161565b508091505092915050565b600060208201905081810360008301526121c78184612170565b905092915050565b7f4e487b7100000000000000000000000000000000000000000000000000000000600052602160045260246000fd5b6006811061220f5761220e6121cf565b5b50565b6000819050612220826121fe565b919050565b600061223082612212565b9050919050565b61224081612225565b82525050565b600060208201905061225b6000830184612237565b92915050565b61226a8161209d565b811461227557600080fd5b50565b60008135905061228781612261565b92915050565b6000602082840312156122a3576122a2611e81565b5b60006122b184828501612278565b91505092915050565b60008115159050919050565b6122cf816122ba565b82525050565b6060820160008201516122eb60008501826122c6565b5060208201516122fe60208501826122c6565b5060408201516123116040850182612161565b50505050565b600060608201905061232c60008301846122d5565b92915050565b600081519050919050565b600082825260208201905092915050565b6000819050602082019050919050565b6000604083016000830151848203600086015261237b8282612128565b91505060208301516123906020860182612161565b508091505092915050565b60006123a7838361235e565b905092915050565b6000602082019050919050565b60006123c782612332565b6123d1818561233d565b9350836020820285016123e38561234e565b8060005b8581101561241f5784840389528151612400858261239b565b945061240b836123af565b925060208a019950506001810190506123e7565b50829750879550505050505092915050565b6000602082019050818103600083015261244b81846123bc565b905092915050565b600082825260208201905092915050565b600061246f826120d9565b6124798185612453565b93506124898185602086016120f5565b61249281611ef8565b840191505092915050565b6124a681611e8b565b82525050565b600060408201905081810360008301526124c68185612464565b90506124d5602083018461249d565b9392505050565b7f596f75277265206e6f74206120766f7465720000000000000000000000000000600082015250565b6000612512601283612453565b915061251d826124dc565b602082019050919050565b6000602082019050818103600083015261254181612505565b9050919050565b7f566f74696e672073657373696f6e20686176656e74207374617274656420796560008201527f7400000000000000000000000000000000000000000000000000000000000000602082015250565b60006125a4602183612453565b91506125af82612548565b604082019050919050565b600060208201905081810360008301526125d381612597565b9050919050565b7f596f75206861766520616c726561647920766f74656400000000000000000000600082015250565b6000612610601683612453565b915061261b826125da565b602082019050919050565b6000602082019050818103600083015261263f81612603565b9050919050565b7f50726f706f73616c206e6f7420666f756e640000000000000000000000000000600082015250565b600061267c601283612453565b915061268782612646565b602082019050919050565b600060208201905081810360008301526126ab8161266f565b9050919050565b7f4e487b7100000000000000000000000000000000000000000000000000000000600052603260045260246000fd5b7f4e487b7100000000000000000000000000000000000000000000000000000000600052601160045260246000fd5b600061271b82611e8b565b91507fffffffffffffffffffffffffffffffffffffffffffffffffffffffffffffffff82141561274e5761274d6126e1565b5b600182019050919050565b600060408201905061276e60008301856120af565b61277b602083018461249d565b9392505050565b7f50726f706f73616c7320617265206e6f7420616c6c6f77656420796574000000600082015250565b60006127b8601d83612453565b91506127c382612782565b602082019050919050565b600060208201905081810360008301526127e7816127ab565b9050919050565b50565b60006127fe600083612453565b9150612809826127ee565b600082019050919050565b6000602082019050818103600083015261282d816127f1565b9050919050565b6000602082019050818103600083015261284e8184612464565b905092915050565b7f566f7573206e6520706f7576657a20706173206e65207269656e2070726f706f60008201527f7365720000000000000000000000000000000000000000000000000000000000602082015250565b60006128b2602383612453565b91506128bd82612856565b604082019050919050565b600060208201905081810360008301526128e1816128a5565b9050919050565b60006128f382611e8b565b91506128fe83611e8b565b925082821015612911576129106126e1565b5b828203905092915050565b6000602082019050612931600083018461249d565b92915050565b7f4f776e61626c653a2063616c6c6572206973206e6f7420746865206f776e6572600082015250565b600061296d602083612453565b915061297882612937565b602082019050919050565b6000602082019050818103600083015261299c81612960565b9050919050565b7f43757272656e7420737461747573206973206e6f7420766f74696e672073657360008201527f73696f6e20656e64656400000000000000000000000000000000000000000000602082015250565b60006129ff602a83612453565b9150612a0a826129a3565b604082019050919050565b60006020820190508181036000830152612a2e816129f2565b9050919050565b6000604082019050612a4a6000830185612237565b612a576020830184612237565b9392505050565b7f4e487b7100000000000000000000000000000000000000000000000000000000600052602260045260246000fd5b60006002820490506001821680612aa557607f821691505b60208210811415612ab957612ab8612a5e565b5b50919050565b7f566f74657320617265206e6f742074616c6c6965642079657400000000000000600082015250565b6000612af5601983612453565b9150612b0082612abf565b602082019050919050565b60006020820190508181036000830152612b2481612ae8565b9050919050565b7f5265676973746572696e672070726f706f73616c732063616e7420626520737460008201527f6172746564206e6f770000000000000000000000000000000000000000000000602082015250565b6000612b87602983612453565b9150612b9282612b2b565b604082019050919050565b60006020820190508181036000830152612bb681612b7a565b9050919050565b7f5265676973746572696e672070726f706f73616c7320686176656e742073746160008201527f7274656420796574000000000000000000000000000000000000000000000000602082015250565b6000612c19602883612453565b9150612c2482612bbd565b604082019050919050565b60006020820190508181036000830152612c4881612c0c565b9050919050565b7f5265676973746572696e672070726f706f73616c73207068617365206973206e60008201527f6f742066696e6973686564000000000000000000000000000000000000000000602082015250565b6000612cab602b83612453565b9150612cb682612c4f565b604082019050919050565b60006020820190508181036000830152612cda81612c9e565b9050919050565b7f4f776e61626c653a206e6577206f776e657220697320746865207a65726f206160008201527f6464726573730000000000000000000000000000000000000000000000000000602082015250565b6000612d3d602683612453565b9150612d4882612ce1565b604082019050919050565b60006020820190508181036000830152612d6c81612d30565b9050919050565b7f566f7465727320726567697374726174696f6e206973206e6f74206f70656e2060008201527f7965740000000000000000000000000000000000000000000000000000000000602082015250565b6000612dcf602383612453565b9150612dda82612d73565b604082019050919050565b60006020820190508181036000830152612dfe81612dc2565b9050919050565b7f416c726561647920726567697374657265640000000000000000000000000000600082015250565b6000612e3b601283612453565b9150612e4682612e05565b602082019050919050565b60006020820190508181036000830152612e6a81612e2e565b905091905056fea2646970667358221220cb013e93352cb28d43251b5ea0a222fe1e3e9a8c39189306f82a34e3175e7c7e64736f6c63430008090033",
  "immutableReferences": {},
  "source": "// SPDX-License-Identifier: MIT\n\npragma solidity ^0.8.7;\n\nimport \"@openzeppelin/contracts/access/Ownable.sol\";\n// import \"./node_modules/@openzeppelin/contracts/access/Ownable.sol\";\n\n\ncontract Voting is Ownable {\n\n    // arrays for draw, uint for single\n    uint[] winningProposalsID;\n    Proposal[] winningProposals;\n    \n    uint winningProposalID;\n    \n    struct Voter {\n        bool isRegistered;\n        bool hasVoted;\n        uint votedProposalId;\n    }\n\n    struct Proposal {\n        string description;\n        uint voteCount;\n    }\n\n    enum  WorkflowStatus {\n        RegisteringVoters,\n        ProposalsRegistrationStarted,\n        ProposalsRegistrationEnded,\n        VotingSessionStarted,\n        VotingSessionEnded,\n        VotesTallied\n    }\n\n    WorkflowStatus public workflowStatus;\n    Proposal[] public proposalsArray;\n    mapping (address => Voter) private voters;\n\n    event VoterRegistered(address voterAddress); \n    event WorkflowStatusChange(WorkflowStatus previousStatus, WorkflowStatus newStatus);\n    event ProposalRegistered(uint proposalId);\n    event Voted (address voter, uint proposalId);\n\n    modifier onlyVoters() {\n        require(voters[msg.sender].isRegistered, \"You're not a voter\");\n        _;\n    }\n    \n    // on peut faire un modifier pour les tats\n\n    // ::::::::::::: GETTERS ::::::::::::: //\n\n    function getVoter(address _addr) external onlyVoters view returns (Voter memory) {\n        return voters[_addr];\n    }\n    \n    function getOneProposal(uint _id) external view returns (Proposal memory) {\n        return proposalsArray[_id];\n    }\n\n    // ne pas tester\n    function getWinners() external view returns (Proposal[] memory) {\n        require(workflowStatus == WorkflowStatus.VotesTallied, 'Votes are not tallied yet');\n        return winningProposals; // return proposalsArray[winningProposalID];\n    }\n\n    function getWinner() external view returns (Proposal memory) {\n        require(workflowStatus == WorkflowStatus.VotesTallied, 'Votes are not tallied yet');\n        return proposalsArray[winningProposalID];\n    }\n \n    // ::::::::::::: REGISTRATION ::::::::::::: // \n\n    function addVoter(address _addr) external onlyOwner {\n        require(workflowStatus == WorkflowStatus.RegisteringVoters, 'Voters registration is not open yet');\n        require(voters[_addr].isRegistered != true, 'Already registered');\n    \n        voters[_addr].isRegistered = true;\n        emit VoterRegistered(_addr);\n    }\n \n    /* facultatif\n     * function deleteVoter(address _addr) external onlyOwner {\n     *   require(workflowStatus == WorkflowStatus.RegisteringVoters, 'Voters registration is not open yet');\n     *   require(voters[_addr].isRegistered == true, 'Not registered.');\n     *   voters[_addr].isRegistered = false;\n     *  emit VoterRegistered(_addr);\n    }*/\n\n    // ::::::::::::: PROPOSAL ::::::::::::: // \n\n    function addProposal(string memory _desc) external onlyVoters {\n        require(workflowStatus == WorkflowStatus.ProposalsRegistrationStarted, 'Proposals are not allowed yet');\n        require(keccak256(abi.encode(_desc)) != keccak256(abi.encode(\"\")), 'Vous ne pouvez pas ne rien proposer'); // facultatif\n        // voir que desc est different des autres\n\n        Proposal memory proposal;\n        proposal.description = _desc;\n        proposalsArray.push(proposal);\n        emit ProposalRegistered(proposalsArray.length-1);\n    }\n\n    // ::::::::::::: VOTE ::::::::::::: //\n\n    function setVote( uint _id) external onlyVoters {\n        require(workflowStatus == WorkflowStatus.VotingSessionStarted, 'Voting session havent started yet');\n        require(voters[msg.sender].hasVoted != true, 'You have already voted');\n        require(_id <= proposalsArray.length, 'Proposal not found'); // pas oblig, et pas besoin du >0 car uint\n\n        voters[msg.sender].votedProposalId = _id;\n        voters[msg.sender].hasVoted = true;\n        proposalsArray[_id].voteCount++;\n\n        emit Voted(msg.sender, _id);\n    }\n\n    // ::::::::::::: STATE ::::::::::::: //\n\n    /* on pourrait factoriser tout a: par exemple:\n    *  function setWorkflowStatus(WorkflowStatus _num) public onlyOwner {\n    *    WorkflowStatus pnum = workflowStatus;\n    *    workflowStatus = _num;\n    *    emit WorkflowStatusChange(pnum, workflowStatus);\n        } */ \n\n\n    function startProposalsRegistering() external onlyOwner {\n        require(workflowStatus == WorkflowStatus.RegisteringVoters, 'Registering proposals cant be started now');\n        workflowStatus = WorkflowStatus.ProposalsRegistrationStarted;\n        emit WorkflowStatusChange(WorkflowStatus.RegisteringVoters, WorkflowStatus.ProposalsRegistrationStarted);\n    }\n\n    function endProposalsRegistering() external onlyOwner {\n        require(workflowStatus == WorkflowStatus.ProposalsRegistrationStarted, 'Registering proposals havent started yet');\n        workflowStatus = WorkflowStatus.ProposalsRegistrationEnded;\n        emit WorkflowStatusChange(WorkflowStatus.ProposalsRegistrationStarted, WorkflowStatus.ProposalsRegistrationEnded);\n    }\n\n    function startVotingSession() external onlyOwner {\n        require(workflowStatus == WorkflowStatus.ProposalsRegistrationEnded, 'Registering proposals phase is not finished');\n        workflowStatus = WorkflowStatus.VotingSessionStarted;\n        emit WorkflowStatusChange(WorkflowStatus.ProposalsRegistrationEnded, WorkflowStatus.VotingSessionStarted);\n    }\n\n    function endVotingSession() external onlyOwner {\n        require(workflowStatus == WorkflowStatus.VotingSessionStarted, 'Voting session havent started yet');\n        workflowStatus = WorkflowStatus.VotingSessionEnded;\n        emit WorkflowStatusChange(WorkflowStatus.VotingSessionStarted, WorkflowStatus.VotingSessionEnded);\n    }\n\n    // ne pas tester\n    function tallyVotesDraw() external onlyOwner {\n       require(workflowStatus == WorkflowStatus.VotingSessionEnded, \"Current status is not voting session ended\");\n        uint highestCount;\n        uint[5] memory winners; // egalite entre 5 proposals max\n        uint nbWinners;\n        for (uint i = 0; i < proposalsArray.length; i++) {\n            if (nbWinners<5){\n                if (proposalsArray[i].voteCount == highestCount) {\n                    winners[nbWinners]=i;\n                    nbWinners++;\n                }\n                if (proposalsArray[i].voteCount > highestCount) {\n                    delete winners;\n                    winners[0]= i;\n                    highestCount = proposalsArray[i].voteCount;\n                    nbWinners=1;\n                }\n            }\n        }\n        for(uint j=0;j<nbWinners;j++){\n            winningProposalsID.push(winners[j]);\n            winningProposals.push(proposalsArray[winners[j]]);\n        }\n        workflowStatus = WorkflowStatus.VotesTallied;\n        emit WorkflowStatusChange(WorkflowStatus.VotingSessionEnded, WorkflowStatus.VotesTallied);\n    }\n\n    function tallyVotes() external onlyOwner {\n        require(workflowStatus == WorkflowStatus.VotingSessionEnded, \"Current status is not voting session ended\");\n        uint _winningProposalId;\n        for (uint256 p = 0; p < proposalsArray.length; p++) {\n            if (proposalsArray[p].voteCount > proposalsArray[_winningProposalId].voteCount) {\n                _winningProposalId = p;\n            }\n        }\n        winningProposalID = _winningProposalId;\n        workflowStatus = WorkflowStatus.VotesTallied;\n        emit WorkflowStatusChange(WorkflowStatus.VotingSessionEnded, WorkflowStatus.VotesTallied);\n    }\n}",
  "sourcePath": "D:\\DOCUMENTS\\ALYRA\\LIVRABLES\\05_voting_truffle_test\\contracts\\Voting.sol",
  "compiler": {
    "name": "solc",
    "version": "0.8.9+commit.e5eed63a.Emscripten.clang"
  },
  "schemaVersion": "3.4.3",
  "updatedAt": "2021-11-13T18:47:21.397Z",
  "devdoc": {
    "kind": "dev",
    "methods": {
      "owner()": {
        "details": "Returns the address of the current owner."
      },
      "renounceOwnership()": {
        "details": "Leaves the contract without owner. It will not be possible to call `onlyOwner` functions anymore. Can only be called by the current owner. NOTE: Renouncing ownership will leave the contract without an owner, thereby removing any functionality that is only available to the owner."
      },
      "transferOwnership(address)": {
        "details": "Transfers ownership of the contract to a new account (`newOwner`). Can only be called by the current owner."
      }
    },
    "version": 1
  },
  "userdoc": {
    "kind": "user",
    "methods": {},
    "version": 1
  }
}